00000101003200000000000000000001ADEREZO VENECIA GALON PZA                              000
00000201012600000000000000000001ADEREZO VENECIA GALON CAJA                             000
00000301008900000000000000000001ATE MORELIANO BARRA PZA                                000
00000401001800000000000000000000ATE MORELIANO A GRANEL KG.                             000
00000501001000000000000000000000ADEREZO A GRANEL KG.                                   000
00000601000700000000000000000001ATUN DOLORES EN ACEITE 170 GRS. PZA                    000
00000701032900000000000000000001ATUN DOLORES EN ACEITE 170 GRS. CAJA                   000
00000801000650000000000000000001ATUN DOLORES EN AGUA 170 GRS. PZA                      000
00000901033000000000000000000001ATUN DOLORES EN AGUA 170 GRS. CAJA                     000
00001001007000000000000000000001ATUN NAIR EN ACEITE 2 KG. PZA                          000
00001101041000000000000000000001ATUN NAIR EN ACEITE 2 KG. CAJA                         000
00001201001200000000000000000001ACEITE 123 LT. PZA                                     000
00001301014200000000000000000001ACEITE 123 12/1 LT X CAJA                              000
00001401000700000000000000000001Q AMA CAMELIA SOBRE 200GR.                             000
00001501001000000000000000000001ACEITE OLTUS 1 LT. PZA                                 000
00001601011200000000000000000001ACEITE OLTUS 12/1 LT X CAJA                            000
00001701001200000000000000000001ACEITE KARTAMUS 1 LT. PZA                              000
00001801013000000000000000000001ACEITE KARTAMUS 1 LT. CAJA                             000
00001901001700000000000000000001ACEITE CRISTAL 1.5. LTS. PZA                           000
00002001013000000000000000000001ACEITE CRISTAL 8/1.5 LTS X CAJA                        000
00002101004000000000000000000001ADEREZO ROYAL GALON PZA                                000
00002201014500000000000000000001ADEREZO ROAYL 4/3.800 KG X CAJA                        000
00002301005500000000000000000001ACEITE YBARRA (OLIVA) EN LATA PZA                      000
00002401003200000000000000000000ACEITUNA A GRANEL S/HUESO KG.                          000
00002501003000000000000000000000ACEITUNA A GRANEL C/HUESO KG.                          000
00002601007500000000000000000001ACEITUNA EN LATA                                       000
00002701003500000000000000000001ADEREZO MEGA PZA                                       000
00002801015200000000000000000001ADEREZO HELLMANNS DE 3.800 KG. CAJA                    000
00002901004000000000000000000001ADEREZO HELLMANNS DE 3.800 KG. PZA                     000
00003001007000000000000000000001ADEREZO MCCORMICK PZA                                  000
00003101027500000000000000000001ADEREZO MCCORMICK CAJA                                 000
00003201000650000000000000000001ACTIVIA P/BEBER X PZA                                  000
00003301018000000000000000000001ACTIVIA PARA BEBER X CAJA                              000
00003401021200000000000000000001ACTIVIA VASO DE 150 GRS X CAJA                         000
00003501001200000000000000000001ACEITE CRISTAL 1 LT PZA                                000
00003601013500000000000000000001ACEITE CRISTAL 12/1 LT CAJA                            000
00003701006000000000000000000000ALCAPARRA X KG.                                        000
00003801021500000000000000000001ACEITE CRISTAL BIDONES 20 L                            000
00004001000200000000000000000001BONACULT PZA                                           000
00004101005800000000000000000001BONACULT CAJA                                          000
00004201001000000000000000000001BONACULT X PTE.                                        000
00004301001450000000000000000001BIMBOLLOS PZA                                          000
00004401000700000000000000000001BONALECHE X PZA                                        000
00004501006600000000000000000001BONALECHE X CAJA                                       000
00004601001300000000000000000001BONAYOGHURT PAQUETE                                    000
00004701000350000000000000000001BONAFON DE 1/2 LT X PZA                                000
00004801005800000000000000000001BONAFON DE 1/2 LT X CAJA                               000
00004901007000000000000000000001CREMA LALA X CUB.                                      000
00005001002200000000000000000001CARRANCEDO DE 1 KG.                                    000
00005101008500000000000000000001CARRANCEDO DE 5 KG.                                    000
00005201001400000000000000000001CREMA NARDO DE 1 KG.                                   000
00005301009800000000000000000001CREMA ALPURA DE 4 LTS.                                 000
00005401000530000000000000000001CREMA LALA 1/4 PZA                                     000
00005501001700000000000000000000CREMA CORTEZ BOLSA DE 5 KG                             000
00005601001900000000000000000001CREMA DE 900 ML. LALA PZA                              000
00005701002300000000000000000001CREMA ALPURA DE 900 ML. PZA                            000
00005801001100000000000000000001CREMA ALPURA 450 ML. PZA                               000
00005901006900000000000000000001CREMA VEGETAL GINA CAJA                                000
00006001000800000000000000000001CREMA VEGETAL GINA PZA                                 000
00006101000500000000000000000001CREMA ALPURA DE 1/4 PZA                                000
00006201001700000000000000000000CREMA DE 1... WinCWS Demo                              000
00006301026500000000000000000001CAJETA QUEMADA CUBETA PZA                              000
00006401002950000000000000000001CATSUP CHEFF DE 3 KG. PZA                              000
00006501001400000000000000000000CREMA A GRANEL DE                                      000
00006601001600000000000000000000CREMA A GRANEL DE                                      000
00006701002000000000000000000000CREMA A GRANEL DE                                      000
00006801009900000000000000000001CREMA ALPURA DE 4 KG. PZA                              000
00006901003200000000000000000001CREMA LYNCOTT X PZA                                    000
00007001001200000000000000000000CAJETA A GRANEL KG.                                    000
00007101002300000000000000000001CATSUP ZAMARU DE 3 KG. PZA                             000
00007201011500000000000000000001CATSUP CHEFF DE 3 KG. CAJA                             000
00007301002950000000000000000001CATSUP BACHI GALON PZA                                 000
00007401011600000000000000000001CATSUP BACHI CON 4 GALONES CAJA                        000
00007501003000000000000000000001CATSUP CLEMENTE DE 3 KG. PZA                           000
00007601016500000000000000000001CATSUP CLEMENTE DE 3 KG. C/6 PZAS. CAJA                000
00007701003700000000000000000001CATSUP COSTE헤 DE 3 KG. PZA                            000
00007801020600000000000000000001CATSUP COSTE헤 DE 3 KG. C/6 PZAS CAJA                  000
00007901001000000000000000000001CATSUP EMBASA PZA                                      000
00008001000800000000000000000001CUEROS                                                 000
00008101001050000000000000000001CREMA LALA 1/2 PZA.                                    000
00008201003600000000000000000001CATSUP PREMIER CUB.                                    000
00008301001200000000000000000001CREMA RANCHERITA DE KILO                               000
00008401025800000000000000000001CREMA ALPURA DE LT. CAJA                               000
00008501025800000000000000000001CREMA ALPURA DE 1/2 CAJA                               000
00008601014500000000000000000001CREMA ALPURA DE 1/4 CAJA                               000
00008701012000000000000000000001CREMA LALA 1/4 CAJA                                    000
00008801007200000000000000000001CHANTY DE 5 KG. PASTELERA (CHICLE)                     000
00008901002000000000000000000001CHANTY DE 1 KG. PASTELERA (CHICLE)                     000
00009001003350000000000000000000CHORIZO RIOJANO KG.                                    000
00009101003200000000000000000000CHORIZO PASTOR KG.                                     000
00009201002000000000000000000000CHORIZO QUERETANO KG.                                  000
00009301003900000000000000000000CHULETA A GRANEL KG.                                   000
00009401003600000000000000000000CHULETA A GRANEL KG. X PZA                             000
00009501005800000000000000000001CHIPOTLE LA TORRE 3 KG. PZA                            000
00009601005000000000000000000001CHAMPI헲NES DE 3 KG. PZA                               000
00009701027500000000000000000001CHAMPI헲NES DE 3 KG. CAJA                              000
00009801000750000000000000000001CHANTILLY PRIMAVERA 190 GRS. PZA                       000
00009901008000000000000000000001CHANTILLY PRIMAVERA DE 190 GRS. CAJA                   000
00010001003200000000000000000000CHILES G㏊ROS A GRANEL KG.                             000
00010101001000000000000000000001CHILES G㏊ROS DE 1/2 LATA PZA                          000
00010201001900000000000000000001CHIPILO DE 1 KG. PZA                                   000
00010301018500000000000000000001CHIPILO DE 1 KG. CAJA                                  000
00010401004500000000000000000001CHILES LARGOS EN ESC. DE 2,800 KG. PZA                 000
00010501001000000000000000000001CHILES LARGOS EN ESC. DE 400 GRS. PZA                  000
00010601001200000000000000000000CHILES EN VINAGRE A GRANEL                             000
00010701001200000000000000000001CHIPILO DE 225 GRS. PZA                                000
00010801009200000000000000000001CHIPILO DE 225 GRS. CAJA                               000
00010901000400000000000000000001CHIPILO DE 90 GRS. PZA                                 000
00011001009500000000000000000001CHIPILO DE 90 GRS. CAJA                                000
00011101001400000000000000000001CHANTY PRIMAVERA DE 400 GRS.                           000
00011201000750000000000000000001CHILES RAJAS 1/2 PZA                                   000
00011301014000000000000000000001CHILES RAJAS 1/2 CAJA                                  000
00011401003000000000000000000001CHIPOTLE BAOLI  FRASCO                                 000
00011501004300000000000000000001CHIPOTLE BAOLI DE 2,800 KG. LATA                       000
00011601003500000000000000000001CHICHARO 3 KG. LATA DEL FUERTE                         000
00011701002600000000000000000001CHILES LA MORENA JALAPE헲S 3 KG.                       000
00011801003800000000000000000000CHICHARRON... WinCWS Demo                              000
00011901002600000000000000000001CHILES JAL... WinCWS Demo                              000
00012001011200000000000000000001CREMA LALA DE 1/2 CAJA                                 000
00012101010200000000000000000001CREMA LALA DE 1 LT. CAJA                               000
00012201011000000000000000000001CEREZA GALON PZA                                       000
00012301042000000000000000000001CEREZA GALON X CAJA                                    000
00012401015000000000000000000001CALDO DE POLLO BACHOCO GALON                           000
00012501006000000000000000000001CHISTORRA KG X PZA                                     000
00012601001500000000000000000000CREMA COMBINADA X KG                                   000
00012701000550000000000000000000CREMA VENECIA X KG                                     000
00012801000580000000000000000001DAN UP DANONE PZA                                      000
00012901015000000000000000000001DAN UP DANONE CAJA                                     000
00013001000800000000000000000001DANONINO DANONE PZA                                    000
00013101018500000000000000000000DANONINO DANONE CAJA                                   000
00013201004200000000000000000001DURAZNO DE 3 KG. PZA                                   000
00013301002000000000000000000001DULCIMA DE 1 KG. PZA                                   000
00013401007600000000000000000001DULCIMA DE 5 KG. PZA                                   000
00013501001200000000000000000001DURAZNO EN ALMIBAR DE 850 GRS. PZA                     000
00013601025500000000000000000001DURAZNO EN ALMIBAR DE 850 GRS. CAJA                    000
00013701004300000000000000000001DURAZNO EN ALMIBAR DE 3 KG. CAJA                       000
00013801006500000000000000000000CREMA VENECIA X CAJA                                   000
00013901004000000000000000000000CHORIZO ZWAN                                           000
00014001000800000000000000000001ENSALADA DE VERDURAS 400 GRS. PZA                      000
00014101014500000000000000000001ENSALADA DE VERDURAS 400 GRS. CAJA                     000
00014201004500000000000000000001EXB NESCAFE                                            000
00014301003800000000000000000001ENSALADA DE VERDURAS 3 KG                              000
00014501003200000000000000000001FRIJOL DE 3 KG. LATA                                   000
00014601015500000000000000000001FRIJOL DE 3 KG. CAJA                                   000
00014701000800000000000000000001FRIJOLES LA COSTE헤 REF. 560 GRS. PZA                  000
00014801008000000000000000000001FRIJOLES LA COSTE헤 REF 560 GRS. CAJA                  000
00014901012500000000000000000001FRIJOLES LA SIERRA BAYOS 430 GRS. CAJA                 000
00015001000550000000000000000001FRIJOLES LA COSTE헤 BAYO ENT 580 GRS. PZA              000
00015101006200000000000000000001FRIJOL LA COSTE헤 BAYO ENT. 580 GRS. CAJA              000
00015201000700000000000000000001FORTILECHE PZA                                         000
00015301007500000000000000000001FORTILECHE CAJA                                        000
00015401014800000000000000000001FLEX ROJA DE 1 KG. CAJA                                000
00015501014800000000000000000001FLEX AZUL DE 1 KG. CAJA                                000
00015601001600000000000000000001FLEX DORELA DE 1 KG. PZA                               000
00015701014800000000000000000001FLEX DORELA DE 1 KG. CAJA                              000
00015801000300000000000000000001FLAN DANET X PZA                                       000
00015901014000000000000000000001FLAN DANET X CAJA                                      000
00016701000200000000000000000001GELATINA ART. PZA                                      000
00016801005000000000000000000001GELATINA ART. CAJA                                     000
00016901000250000000000000000001GELATINA DANY PZA                                      000
00017001012000000000000000000001GELATINA DANY CAJA                                     000
00017101000700000000000000000001GRANO DE ELOTE HERDEZ DE 450 GRS. PZA                  000
00017201003400000000000000000001GLORIA DE 1 KG. PZA                                    000
00017301029500000000000000000001GLORIA DE 1 KG. CAJA                                   000
00017401000000000000000000000001                                                       000
00017501000000000000000000000001                                                       000
00018001000450000000000000000001HERSHEYS DE 1/4 NESTLE PZA                             000
00018101011500000000000000000001HERSHEYS DE 1/4 NESTLE CAJA                            000
00019001001800000000000000000001INCA DE 1 KG. PZA                                      000
00019101020000000000000000000001INCA DE 1 KG. CAJA                                     000
00019201000800000000000000000001IBERIA DE 225 GRS. PZA                                 000
00019301006500000000000000000001IBERIA DE 225 GRS. CAJA                                000
00019401001500000000000000000001IBERIA DE 500 GRS. PZA                                 000
00019501013500000000000000000001IBERIA DE 500 GRS. CAJA                                000
00019601002000000000000000000001IBERIA DE 1 KG. PZA                                    000
00019701019500000000000000000001IBERIA DE 1 KG. CAJA                                   000
00019801000350000000000000000001IBERIA DE 90 GRS. PZA                                  000
00019901007500000000000000000001IBERIA DE 90 GRS. CAJA                                 000
00020201001750000000000000000000JAMON COCIDO HECTTOR X PZ                              000
00020301001850000000000000000000JAMON COCIDO HECTTOR X KG                              000
00020601002200000000000000000000JAMON#AMERICANO                                        000
00020701002000000000000000000000JAMON#INTERMEDIO                                       000
00020801003000000000000000000000JAMON#HORNEADO                                         000
00020901002600000000000000000000JAMONXKG                                               000
00021001007000000000000000000000JAMON DE PIERNA ZWAN MANDOLINA KG.                     000
00021101006800000000000000000000JAMON DE PIERNA ZWAN MAND. PZA                         000
00021201002750000000000000000000JAMON VIRGINIA HECTTOR X PZA.                          000
00021401000000000000000000000000JAMON JADE                                             000
00021501004000000000000000000000JAMON ALPINO KG.                                       000
00021601003800000000000000000000JAMON ALPINO PZA                                       000
00021701003400000000000000000000JAMON DANIEL X KG                                      000
00021801003200000000000000000000JAMON DANIEL KG X PZA                                  000
00021901004000000000000000000000JAMON DE PAVO HERTY KG. X PZA                          000
00022001001700000000000000000000JAMON COCIDO HERTY KG. X PZA                           000
00022101002700000000000000000000JAMON AMERICANO HERTY REB.                             000
00022201002500000000000000000000JAMON AMERICANO HERTY KG. X PZA                        000
00022301003250000000000000000000JAMON HORNEADO HECTTOR REB.                            000
00022401003190000000000000000000JAMON HORNEADO HECTTOR KG. X PZA                       000
00022501004500000000000000000000JAMON DE PIERNA YORK AZUL HERTY REB.                   000
00022601003250000000000000000000JAMON DE PIERNA YORK AZUL HERTY PZA.                   000
00022701002550000000000000000000JAMON YORK AMERICANO HERTY PZA                         000
00022801004600000000000000000000JAMON VIRGINIA FUD REB.                                000
00022901004400000000000000000000JAMON VIRGINIA FUD PZA.                                000
00023001002350000000000000000000JAMON COCIDO VIVA PZA                                  000
00023101003800000000000000000000JAMON AMERICANO FUD REB.                               000
00023201003600000000000000000000JAMON AMERICANO FUD PZA                                000
00023301003850000000000000000000JAMON HORNEADO GALICIA REB.                            000
00023401003750000000000000000000JAMON HORNEADO GALICIA PZA                             000
00023501001800000000000000000000JAMON JAROCHO REB.                                     000
00023601001800000000000000000000JAMON JAROCHO PZA.                                     000
00023701002550000000000000000000JAMON AMERICANO HECTTOR REB.                           000
00023801002450000000000000000000JAMON AMERICANO HECTTOR PZA.                           000
00023901002500000000000000000000JAMON AMERICANO HACIENDA REB.                          000
00024001002400000000000000000000JAMON AMERICANO HACIENDA PZA.                          000
00024101005300000000000000000001JUGO MAGGI DE 1 LT. PZA                                000
00024201004000000000000000000000JAMON HERTY DE PAVO PZA.                               000
00024301003600000000000000000000JAMON ZWAN VIRGINIA KG.                                000
00024401018000000000000000000000JAMON SERRANO REB.                                     000
00024501003800000000000000000000JAMON DE PECHUGA DE PAVO S/ANT KG.                     000
00024601004000000000000000000000JAMON DE PAVO HERTY X KG                               000
00024701004650000000000000000000JAMON DE PAVO VIRGINIA KG X PZA                        000
00024801003400000000000000000000JAMON DANIEL X PZA                                     000
00024901000000000000000000000000                                                       000
00025001000000000000000000000000                                                       000
00025101004800000000000000000000JAMON DE PAVO VIRGINIA X KG                            000
00025201002400000000000000000000JAMON KIR LUNCH KG X PZA                               000
00025301002500000000000000000000JAMON KIR LUNCH X KG                                   000
00025401002400000000000000000000JAMON SAN FRANCISCO KG X PZA                           000
00025501004500000000000000000000LOMO CANADIENSE HERTY KG.                              000
00025601004200000000000000000000LOMO CANADIENSE HERTY PZA                              000
00025701002100000000000000000000LONGANIZA HECTTOR PZA                                  000
00025801003300000000000000000000LONGANIZA RIOJANO PZA                                  000
00025901003000000000000000000000LONGANIZA PASTOR PZA.                                  000
00026001002000000000000000000000LONGANIZA QUERETANA X KG                               000
00026101000700000000000000000001LICUADO DANONE PZA                                     000
00026201018000000000000000000001LATIGHURT DE 20 KG. PZA                                000
00026301001050000000000000000001LATA LECHERA NESTLE PZA                                000
00026401049000000000000000000001LATA DE LECHERA NESTLE CAJA                            000
00026501000750000000000000000001LECHE CLAVEL NESTLE 410 GRS. PZA                       000
00026601034500000000000000000001LECHE CLAVEL DE 410 GRS. CAJA                          000
00026701000900000000000000000001LECHE ALPURA 2000 DE 1 LT. PZA                         000
00026801010200000000000000000001LECHE ALPURA 2000 DE 1 LT. CAJA                        000
00026901002100000000000000000001LECHERA NORDIKA DE 1 LT. PZA                           000
00027001046000000000000000000001LECHERA DE 20 LTS. PZA                                 000
00027101000800000000000000000001LEVADURA FLORIDA DE 400 GRS. PZA.                      000
00027201019500000000000000000001LEVADURA FLORIDA DE 400 GRS. CAJA                      000
00027301001900000000000000000000LECHERA A GRANEL KG.                                   000
00027401004200000000000000000001LATA DE CHILE PICADO 3 KG.                             000
00027501001100000000000000000001LATA DE CHIPOTLE DE 1/2 KG PZA                         000
00027601019500000000000000000001LATA DE CHIPOTLE 1/2 KG CAJA                           000
00027701002500000000000000000001LATA DE RAJAS TORRE ROJAS X PZA                        000
00027801004300000000000000000001LATA DE CHILES PICADOS COSTE헤                         000
00027901002500000000000000000001LATA DE JALAPE헲 VICTORIA PZA                          000
00028001011700000000000000000001LATA DE JALAPE헲 X CAJA                                000
00028101003800000000000000000001LATA DE VERDURA 3 KG X PZA                             000
00028201022800000000000000000001LATA DE VERDURA X CAJA 3 KG                            000
00028301001000000000000000000000MOSTAZA KG.                                            000
00028401003000000000000000000001MOSTAZA FCO. DE 3.600 KG.  PZA                         000
00028501001300000000000000000001MIEL FRASCO DE 1 KG. PZA                               000
00028601003850000000000000000000MANDOLINA GALICIA KG. X PZA.                           000
00028701004500000000000000000000MANDOLINA YORK HECTTOR REB.                            000
00028801004050000000000000000000MANDOLINA YORK HECTTOR KG. X PZA.                      000
00028901000900000000000000000001MALTEADA DE CHOC. ALPURA 1 LT. PZA.                    000
00029001010300000000000000000001MALTEADA DE CHOC. ALPURA 1 LT. CAJA                    000
00029101000350000000000000000001MALTEADA DE CHOC. ALPURA DE 1/4 PZA.                   000
00029201008300000000000000000001MALTEADA DE CHOC. ALPURA DE 1/4 CAJA                   000
00029301000350000000000000000001MALTEADA FRESA ALPURA DE 1/4 PZA.                      000
00029401008300000000000000000001MALTEADA FRESA ALPURA DE 1/4 CAJA                      000
00029501000900000000000000000001MEDIAS NOCHES PTE.                                     000
00029601000800000000000000000001MAIZ POZOLERO SECO ESTRELLA PZA.                       000
00029701001600000000000000000000MORTADELA HECTTOR KG.                                  000
00029801001450000000000000000000MORTADELA HECTTOR PZA.                                 000
00029901000900000000000000000001MALTEADA FRESA ALPURA DE 1 LT. PZA.                    000
00030001010300000000000000000001MALTEADA FRESA ALPURA DE 1 LT. CAJA                    000
00030101018000000000000000000001MANTECA DE PUERCO CUBETA PZA.                          000
00030201020500000000000000000001MERMELADA DE FRESA CUB. PZA.                           000
00030301001200000000000000000000MERMELADA DE PI헤 A GRANEL KG.                         000
00030401003800000000000000000001MANTEQUILLA BOLSA PORCION PZA.                         000
00030501028500000000000000000001MANTEQUILLA BOLSA PORCION CAJA                         000
00030601003000000000000000000001MAYONESA MC. # 32 PZA.                                 000
00030701005500000000000000000001MAYONESA MC. # 64 PZA.                                 000
00030801000950000000000000000001MAYONESA MC. #8 PZA.                                   000
00030901018800000000000000000001MAYONESA MC. #8 CAJA                                   000
00031001001950000000000000000001MAYONESA MC. # 16 PZA.                                 000
00031101019500000000000000000001MAYONESA MC. #16 CAJA                                  000
00031201000500000000000000000001MAYONESA MC. #4 PZA.                                   000
00031301012000000000000000000001MAYONESA MC. # 4 CAJA                                  000
00031401008500000000000000000001MAYONESA McCORMICK INT. 3.800  PZA.                    000
00031501033000000000000000000001MAYONESA McCORMICK INT. 3,800 CAJA                     000
00031601000900000000000000000001MAIZ HERDEZ DE 425 GRS. PZA.                           000
00031701019500000000000000000001MAIZ HERDEZ DE 425 GRS. CAJA                           000
00031801001000000000000000000000MERMELADA DE FRESA A GRANEL KG.                        000
00031901001400000000000000000000MANTECA A GRANEL KG.                                   000
00032001001000000000000000000000MIEL A GRANEL KG.                                      000
00032101000550000000000000000001MAIZ POZOLERO CON AGUA PZA.                            000
00032201003400000000000000000001MAYONESA MEGA PZA.                                     000
00032301019500000000000000000001MAYONESA MEGA CAJA                                     000
00032401001400000000000000000001MANTEQUILLA SAN ANTONIO PZA.                           000
00032501013000000000000000000001MANTEQUILLA SAN ANTONIO CAJA                           000
00032601002800000000000000000000JAMON SAN FRANCISCO X KG                               000
00032701008300000000000000000101MAYONESSA HELLMANNS.PZA.3.8                            000
00032801003500000000000000000101NESCAFE.200.GR.                                        000
00032901015500000000000000000001NESCAFE. 1 KG.                                         000
00033501000700000000000000000001NUTRILECHE PZA.                                        000
00033601008200000000000000000001NUTRILECHE CAJA                                        000
00033701000450000000000000000001NESK QUICK DE 1/4 NESTLE PZA.                          000
00033801011500000000000000000001NESK QUICK DE 1/4 NESTLE CAJA                          000
00033901009850000000000000000001NORK SUIZA C/6 EXB. TIRA PZA.                          000
00034001013500000000000000000001NORK SUIZA GALON PZA.                                  000
00034101053000000000000000000001NORK SUIZA GALON C/R PZAS CAJA                         000
00034201001700000000000000000001NACHOS BARCEL PZA.                                     000
00034301004500000000000000000001NACHOS BARCEL CAJA                                     000
00034401004300000000000000000001NACHOS COSTE헤 X PZA                                   000
00034501000350000000000000000001NATILLA DANET X PZA                                    000
00034601001300000000000000000001NATILLA DANET CUADRO                                   000
00034701007800000000000000000001NATILLA DANET X CAJA                                   000
00035301003700000000000000000000PIERNA AHUMADA HERTY KG.                               000
00035401003600000000000000000000PIERNA AHUMADA HERTY PZA.                              000
00035501003250000000000000000000PIERNA ESPA헲LA HERS KG.                               000
00035601003200000000000000000000PIERNA ESPA헲LA HERS PZA.                              000
00035701002600000000000000000000PIERNA ADOBADA HECTTOR KG.                             000
00035801002500000000000000000000PIERNA ADOBADA HECTTOR PZA.                            000
00035901001600000000000000000000PASTEL PIMIENTO HECTTOR KG.                            000
00036001001470000000000000000000PASTEL PIMIENTO HECTTOR PZA.                           000
00036101003800000000000000000000PECHUGA DE PAVO REB.                                   000
00036201003500000000000000000000PECHUGA DE PAVO PZA.                                   000
00036301002500000000000000000001PURE LA COSTE헤 3 KG. PZA.                             000
00036401014500000000000000000001PURE LA COSTE헤 3 KG. CAJA                             000
00036501001350000000000000000001PAN INTEGRAL GRANDE BIMBO PZA.                         000
00036601001350000000000000000001PAN BLANCO GRANDE BIMBO PZA.                           000
00036701000850000000000000000001PAN TOSTADO PZA.                                       000
00036801000850000000000000000001PAN INTEGRAL TOSTADO BIMBO PZA.                        000
00036901003600000000000000000001PALOMITAS EXT DE MANT.NATURAL CAJA CAJA                000
00037001007500000000000000000001PALOMITAS DE Q. AMARILLO CARAMELO CAJA CAJA            000
00037101005500000000000000000001PI헤 EN ALMIBAR DE 3 KG. PZA.                          000
00037201032000000000000000000001PI헤 EN ALMIBAR DE 3 KG. CAJA                          000
00037301001300000000000000000001PI헤 EN ALMIBAR DE 850 GRS. PZA.                       000
00037401031000000000000000000001PI헤 EN ALMIBAR DE 850 GRS. CAJA.                      000
00037501000800000000000000000001PATHE DE ZWAN PZA                                      000
00037601005800000000000000000000PEPERONI X KG                                          000
00037701003700000000000000000000PIERNA HORNEADA X KG                                   000
00037801003800000000000000000000PIERNA HORNEADA KG X PZA                               000
00037901002800000000000000000000Q.CHIHUAHUA CUNTRY.X KG.                               000
00038001007800000000000000000001Q. GROULLER X KILO                                     000
00038101007800000000000000000001Q. GROULLER X PZA                                      000
00038401005800000000000000000000Q. PANELA COVADONGA KG. X PZA.                         000
00038501003800000000000000000000Q. OAXACA S/MARCA.                                     000
00038601003800000000000000000001Q. PARMESANO DE 227 GRS. BOTE                          000
00038701002500000000000000000000Q. DE PUERCO REB.                                      000
00038801002400000000000000000000Q. DE PUERCO KG. X PZA.                                000
00038901002700000000000000000000Q. TORTERO REB.                                        000
00039001002600000000000000000000Q. TORTERO KG. X PZA.                                  000
00039101004400000000000000000000Q. CANASTO CHILCH. KG X PZA.                           000
00039201004300000000000000000000Q. BLANCO SIERRA MINIPEQ. CHILCH. PZA.                 000
00039301004200000000000000000000Q. CANASTO S. ORO KG X PZA.                            000
00039401004400000000000000000000Q. CANASTO CLAVEL KG.                                  000
00039501003950000000000000000000Q. CANASTO CLAVEL KG X PZA.                            000
00039601004150000000000000000000Q. CANASTO CAMELIA KG.                                 000
00039701004000000000000000000000Q. CANASTO CAMELIA KG. X PZA.                          000
00039801006000000000000000000001Q. AMARILLO CHIP. C/2 EXB. DE KG.                      000
00039901001600000000000000000000Q. RALLADO DELICIAS KG.                                000
00040001001800000000000000000000Q. RALLADO CANADA KG.                                  000
00040101001200000000000000000000Q. RALLADO ESPECIAL KG.                                000
00040201004600000000000000000000Q. CANASTO CHILCH. KG.                                 000
00040301004400000000000000000000Q. CANASTO... WinCWS Demo                              000
00040401003200000000000000000000Q. BLANCO DURANGUE헲 KG.                               000
00040501003200000000000000000000Q. BLANCO... WinCWS Demo                               000
00040601006500000000000000000000Q. D/CREMA CAMELIA KG X PZA.                           000
00040701003500000000000000000001Q. D/CREMA... WinCWS Demo                              000
00040801004200000000000000000000Q. OAXACA SAN PABLO KG.                                000
00040901004100000000000000000000Q. OAXACA SAN PABLO KG. X PZA.                         000
00041001004300000000000000000001Q. AMARILLO BLUE HOUSE (6 PZAS)                        000
00041101004400000000000000000001Q. AMARILLO COLONOS EXB.                               000
00041201005600000000000000000001Q. AMARILLO CAMELIA EXB.                               000
00041301005500000000000000000001Q. AMARILLO PREMIER EXB.                               000
00041401005000000000000000000001Q. AMARILLO RANCHERITO EXB.                            000
00041501006000000000000000000001Q. MOLIDO A GRANEL BOLSA C/10 KG.                      000
00041601000700000000000000000000Q. MOLIDO A GRANEL KG.                                 000
00041701001100000000000000000001Q. FUNDIDO QUENACHO PZA.                               000
00041801012000000000000000000001Q. FUNDIDO RANCHERITO CAJA                             000
00041901004000000000000000000000Q. COTIJA A GRANEL KG.                                 000
00042001003800000000000000000000Q. COTIJA A GRANEL KG X  PZA.                          000
00042101004600000000000000000000Q. MANCHEGO N. ZELANDA KG.                             000
00042201004500000000000000000000Q. MANCHEGO N. ZELANDA KG. X PZA.                      000
00042301004200000000000000000000Q. CHIHUAHUA MENONITA KG.                              000
00042401004000000000000000000000Q. CHIHUAHUA MENONITA KG. X PZA.                       000
00042501003400000000000000000000Q. PANELA LORETO KG.                                   000
00042601003050000000000000000000Q. PANELA LORETO KG. X PZA.                            000
00042701004200000000000000000000Q. OAXACA SAN DIEGO KG.                                000
00042801004100000000000000000000Q. OAXACA SAN DIEGO KG. X PZA.                         000
00042901004500000000000000000000Q. OAXACA CHINOS KG.                                   000
00043001004350000000000000000000Q. OAXACA CHINOS KG X PZA.                             000
00043101004500000000000000000000Q. OAXACA VAQUERO KG X PZA.                            000
00043201002500000000000000000001Q. DE CABRA DE 200 GRS. PZA.                           000
00043301008000000000000000000000Q. PARMESANO RALLADO KG.                               000
00043401011800000000000000000001Q. COTTAGE NORMEX CUB. PZA.                            000
00043501003200000000000000000000Q. COTTAGE NORME KG.                                   000
00043601003950000000000000000000Q. CHIHUAHUA 3 ESTRELLAS KG.                           000
00043701013500000000000000000001Q. D/CREMA... WinCWS Demo                              000
00043801012900000000000000000001Q. D/CREMA CAMELIA CAJA                                000
00043901004000000000000000000000Q. PANELA ABUELO KG.                                   000
00044001003750000000000000000000Q. PANELA ABUELO KG. X PZA.                            000
00044101002500000000000000000000Q. PUERCO KG.                                          000
00044201002500000000000000000000Q. PUERCO KG. X PZA.                                   000
00044301002800000000000000000000Q. TIPO ASADERO X KG.                                  000
00044401002700000000000000000000Q. TIPO ASADERO KG X PZA.                              000
00044501006500000000000000000000Q. ASADERO NOCHE BUENA KG.                             000
00044601006500000000000000000000Q. ASADERO NOCHE BUENA KG X PZA.                       000
00044701001400000000000000000001Q. FILADELPHIA X PZA.                                  000
00044801033000000000000000000001Q. FILADELPHIA CAJA C/24 PZAS.                         000
00044901002650000000000000000000Q. CHIHUAH... WinCWS Demo                              000
00045001002800000000000000000000Q. CHIHUAH... WinCWS Demo                              000
00045101003600000000000000000000Q. D/CREMA... WinCWS Demo                              000
00045201001300000000000000000001Q. RANCHER... WinCWS Demo                              000
00045301004200000000000000000000QUESO TIPO SUIZO NORMEX                                000
00045401004400000000000000000000Q. CANASTO... WinCWS Demo                              000
00045501003000000000000000000000Q. AMARILLO X KILO                                     000
00045601003500000000000000000001RAJAS LA TORRE DE 3 KG. PZA.                           000
00045701002300000000000000000001RAJAS NORTE헤 DE 3 KG. PZA.                            000
00045801000800000000000000000000REQUESON A GRANEL KG.                                  000
00045901003600000000000000000001RAJAS LA C... WinCWS Demo                              000
00046001020000000000000000000001RAJAS LA C... WinCWS Demo                              000
00046101019000000000000000000001RAJAS MEXICANISIMO CUB                                 000
00046201003000000000000000000001Q. DOBLE CREMA LISTON ROJO PZA.                        000
00046301011200000000000000000001Q. DOBLE CREMA LISTON ROJO CAJA                        000
00046401003200000000000000000000NORMEX CUBETA DE 4 KG                                  000
00046501002300000000000000000000SALCHICHA OPERADORA FUD KG.                            000
00046601002200000000000000000000SALCHICHA OPERADORA FUD KG X PZA.                      000
00046701002600000000000000000000SALCHICHA DE PAVO ZWAN KG                              000
00046801002400000000000000000000SALCHICHA DE PAVO ZWAN KG X PZA.                       000
00046901002600000000000000000000SALCHICHA DE PAVO TURKEY FUD KG.                       000
00047001002600000000000000000000SALCHICHA DE PAVO TURKEY FUD KG X PZA.                 000
00047101001800000000000000000000SALCHICHA VIVA DE KG.                                  000
00047201001750000000000000000000SALCHICHA VIVA KG X PZA                                000
00047301001150000000000000000000SALCHICHA HACIENDA KG X PTE                            000
00047401001170000000000000000001SALMUERA DE SALCHICHA FUD 400 GRS. PZA.                000
00047501001650000000000000000000SALCHICHA VIENA ZWAN KG X PZA.                         000
00047601001400000000000000000000SALCHICHA HECTTOR KG.                                  000
00047701001270000000000000000000SALCHICHA HECTTOR KG X PZA.                            000
00047801002000000000000000000000SALCHICHA RIONI KG                                     000
00047901001850000000000000000000SALCHICHA RIONI KG X PZA.                              000
00048001002100000000000000000000SALCHICHA ESE FUD KG X PZA.                            000
00048101002500000000000000000000SALCHICHA COCKTAIL ALPINO KG.                          000
00048201002350000000000000000000SALCHICHA COCKTAIL ALPINO KG X PZA.                    000
00048301001500000000000000000000SALCHICHA TORINO KG.                                   000
00048401001150000000000000000000SALCHICHA TOINO KG X PZA.                              000
00048501000640000000000000000001SALMUERA DE 200 GRS  FUD PZA.                          000
00048601002800000000000000000000SALAMI HERTY KILO                                      000
00048701002600000000000000000000SALAMI HERTY KG X PZA.                                 000
00048801004250000000000000000000SALAMI FUD PZA.                                        000
00048901004000000000000000000001SOPA MARUCHAN DE CAMARON CAJA                          000
00049001004900000000000000000001SOPA DE SPAGUETTI CAJA                                 000
00049101004000000000000000000001SOPA MARUCHAN DE CAMARON C/CHILE CAJA                  000
00049201004000000000000000000001SOPA MARUCHAN DE POLLO CAJA                            000
00049301004000000000000000000001SOPA MARUCHAN DE RES CAJA                              000
00049401004000000000000000000001SOPA MARUCHA DE CANGREJO CAJA                          000
00049501004500000000000000000001SALSA INGLESA DE 1 LT. PZA.                            000
00049601001400000000000000000001SERVILLETAS PTE.                                       000
00049701016200000000000000000001SEVILLETAS CAJA                                        000
00049801001900000000000000000001SALSA BOTANERA PZA.                                    000
00049901011400000000000000000001SALSA BOTANERA CAJA                                    000
00050001003200000000000000000001SALSA CATSUP PREMIER DE 4.5 KG. PZA.                   000
00050101009500000000000000000001SALMUERA POR PAQUETE                                   000
00050201001200000000000000000000SALCHICHA CHEROS KG                                    000
00050301001200000000000000000000SALCHICHA CHEROS KG X PZA                              000
00050401002600000000000000000000SALCHICHA PAVINO KG                                    000
00050501002100000000000000000000SALCHICHA PAVINO KG X PZA                              000
00050601001700000000000000000000QUESO COTTAGE NORMEX EXB C/ENB 500 GRS                 000
00050701001950000000000000000000RECORTE DE QUESO                                       000
00050801006200000000000000000000Q MANCHEGO NOCHE BUENA KG X PZA                        000
00050901006400000000000000000000Q MANCHEGO NOCHE B X KG                                000
00051001003800000000000000000000TOCINO HERS KG.                                        000
00051101003600000000000000000000TOCINO HERS KG X PZA.                                  000
00051201001000000000000000000001TORTILLA DE HARINA DE 1 KG. PZA.                       000
00051301000650000000000000000001TORTILLINA (TIA ROSA) C/10 PZAS.                       000
00051401000850000000000000000001TOSTADAS CHARRAS PZA.                                  000
00051501014200000000000000000001TOSTADAS CHARRAS CAJA                                  000
00051601004000000000000000000000TOCINO AL VACIO HECTOR PZA                             000
00051701003900000000000000000000TOCINO HECTOR X KG                                     000
00051801003800000000000000000000TOCINO X KG                                            000
00051901001000000000000000000000RECORTE DE JAMON                                       000
00052001006700000000000000000000Q OAXACA NOCHE BUENA KG X PZA                          000
00052101003600000000000000000000TOCINO AHUMADO HERTY PACK                              000
00052201002200000000000000000001SALCHICHA JUMBO KIR PQT.                               000
00052401003500000000000000000001TOSTADA X CIENTO                                       000
00052501001600000000000000000001VINAGRE DE 4 LTS. BLANCO DIMEX PZA.                    000
00052601005600000000000000000001VINAGRE DE 4 LTS. BLANCO DIMEX CAJA                    000
00052701000600000000000000000001VINAGRE DE 1 LT. DIMEX PZA.                            000
00052801006000000000000000000001VINAGRE DE 1 LT. DIMEX CAJA                            000
00052901000400000000000000000001VALENTINA AMARILLA DE 370 M. PZA.                      000
00053001008400000000000000000001VALENTINA AMARILLA DE 370 ML. CAJA                     000
00053101000400000000000000000001VALENTINA NEGRA DE 370 ML. PZA.                        000
00053201009000000000000000000001VALENTINA NEGRA DE 370 ML. CAJA                        000
00053301000900000000000000000001VALENTINA NEGRA DE 1 LT. PZA.                          000
00053401009300000000000000000001VALENTINA NEGRA DE 1 LT. CAJA                          000
00053501000850000000000000000001VALENTINA AMARILLA DE 1 LT.                            000
00053601008400000000000000000001VALENTINA AMARILLA DE 1 LT. CAJA                       000
00053701000680000000000000000001VITALINEA... WinCWS Demo                               000
00053801019050000000000000000001VITALINEA... WinCWS Demo                               000
00053901000480000000000000000001VITALINEA... WinCWS Demo                               000
00054001023050000000000000000001VITALINEA... WinCWS Demo                               000
00054501000000000000000000000101                                                       000
00054601001700000000000000000001YOGHURT DE... WinCWS Demo                              000
00054701000450000000000000000001ACTIVIA VASO 150 GR X PZ                               000
00054801000350000000000000000001YOGHURT YOPLAIT 150 GRS PZA                            000
00054901007800000000000000000001YOGHURT YOPLAIT CAJA                                   000
00055001000600000000000000000001YOGHURT GRAN DIA PZA                                   000
00055101014000000000000000000001YOGHURT GRAN DIA CAJA                                  000
00055201003500000000000000000001YOGHURT BALCAM DE 4 LTS. PZA.                          000
00055301003000000000000000000001YOGHURT TARASCO  DE 4 LTS. PZA.                        000
00055401000300000000000000000001YOGHURT ALPURA DE 250 ML. PZA.                         000
00055501006800000000000000000001YOGHURT ALPURA DE 250 ML. CAJA                         000
00055601000450000000000000000001YOFRUT ALPURA PZA.                                     000
00055701011000000000000000000001YOFRUT ALPURA CAJA                                     000
00055801002200000000000000000001YOGHURT YOPLAIT DE 1 LT. PZA.                          000
00055901000320000000000000000001YAKULT PZA                                             000
00056001009500000000000000000001YAKULT CAJ... WinCWS Demo                              000
00056101005700000000000000000001YOGHURT PA... WinCWS Demo                              000
00056201027500000000000000000001YOGHURT 20 LTS PALMALAC CUB                            000
00058001013000000000000000000001ACEITE MARAVILLA LT X CAJA                             000
00058101001200000000000000000001ACEITE MARAVILLA LT X PZA                              000
00058201013500000000000000000001ACEITE PATRONA LT X CAJA                               000
00058301001200000000000000000001ACEITE PATRONA LT X PZA                                000
00058401011800000000000000000001ACEITE SORAYA LT CAJA                                  000
00058501001000000000000000000001ACEITE SORAYA LT PZA                                   000
00058601019500000000000000000001ADEREZO MEGA X CAJA                                    000
00059001000000000000000000000001                                                       000
00060101002500000000000000000001CHOCOLATE ABUELITA 540 GR EX                           000
00060201056000000000000000000001CHOCOLATE ABUELITA 24/6X90 CAJA                        000
00063701004350000000000000000000JAMON D YORK DHECTTOR X PZ                             000
00063801004450000000000000000000JAMON D YORK DHECTTOR X KG                             000
00064001011000000000000000000001LATA DE CHIPOTLE 105 GR CAJA                           000
00064101000350000000000000000001LATA CHIPOTLE 105 GR PZA                               000
00064201043000000000000000000001LECHERA GELARA CUB 20 LT                               000
00064301002500000000000000000000LONGANIZA GALICIA X KG                                 000
00065101005500000000000000000001MIEL X GALON                                           000
00065201003450000000000000000000PIERNA HORNEADA HECTTOR X PZ                           000
00065301003550000000000000000000PIERNA HORNEADA HECTTOR X KG                           000
00065601002650000000000000000000PIERNA AMERICANO HETTOR X PZ                           000
00065701002750000000000000000000PIERNA AMERICANO HECTOR X KG                           000
00067001001950000000000000000001SALSA SABROZITA 3 LT PZA                               000
00067101011200000000000000000001SALSA SABROZITA 3 LT X CAJA                            000
00067201000000000000000000000001                                                       000
00067401001270000000000000000000SALCHICHA ALYS X PZ                                    000
00067501001370000000000000000000SALCHICHA ALYS X KG                                    000
00070001000500000000000000000001AGUA ELECTROPURA DE 1.5 LTS. PZA.                      000
00070101004800000000000000000001AGUA ELECTROURA DE 1.5 LTS. CAJA                       000
00070201000300000000000000000001AGUA ELECTROPURA DE 1/2  LT. PZA.                      000
00070301004800000000000000000001AGUA ELECTROPURA DE 1/2 LT. CAJA                       000
00070401000350000000000000000001AGUA BONAFON DE 1/2 LT. PZA.                           000
00070501005800000000000000000001AGUA BONAFON DE 1/2 LT. CAJA                           000
00070601000600000000000000000001AGUA BONAFON DE 1.5 LTS. PZA                           000
00070701005800000000000000000001AGUA BONAFON DE 1.5 LTS. CAJA                          000
00070801000500000000000000000001AGUA CELTA DE 1.5. LTS. PZA.                           000
00070901003800000000000000000001AGUA CELTA DE 1.5. LTS. CAJA                           000
00071001000300000000000000000001AGUA CELTA DE 1/2 LT. PZA                              000
00071101000500000000000000000001AGUA BONAFON DE 1 LT. PZA                              000
00071201005200000000000000000001AGUA BONAFON DE 1 LT. CAJA                             000
00071301000500000000000000000001AMI DE 1/2 JUMEX PZA.                                  000
00071401003700000000000000000001AMI DE 1/2 JUMEX CAJA                                  000
00072501000500000000000000000001BOTELLIN 1/4 JUMEX PZA.                                000
00072601007500000000000000000001BOTELLIN 1/4 JUMEX CAJA                                000
00072701000500000000000000000001BOING DE VIDRIO PZA                                    000
00072801009000000000000000000001BOING DE VIDRIO CAJA                                   000
00072901000700000000000000000001BI LAIGHT DE 1/2 LT. PZA.                              000
00073001011500000000000000000001BI LAIGHT DE 1/2 LT. CAJA                              000
00073101001000000000000000000001BOING DE 1 LT. PZA.                                    000
00073201010500000000000000000001BOING DE 1 LT. CAJA                                    000
00073301000800000000000000000001CUBARAIMA PZA.                                         000
00073401013500000000000000000001CUBARAIMA CAJA                                         000
00073501000500000000000000000001BOTELLIN DEL VALLE PZA.                                000
00073601008000000000000000000001BOTELLIN DEL VALLE CAJA                                000
00073701007000000000000000000001BOING DE 1/4 CAJA                                      000
00073801000500000000000000000001BOING DE 1/2 PZA                                       000
00073901010400000000000000000001BOING DE 1/2 CAJA                                      000
00074001000250000000000000000001BOING DE TRIANGULO PZA.                                000
00074101004000000000000000000001BOING DE TRIANGULO CAJA                                000
00074201000300000000000000000001BONAFON DE 330 ML. PZA.                                000
00074301006500000000000000000001BONAFON DE 330 ML. CAJA                                000
00074401000500000000000000000001BIG COLA DE 1.280 LTS. PZA.                            000
00074501006200000000000000000001BIG COLA DE 1.280 LTS. CAJA                            000
00074601001100000000000000000001BIG COLA DE 3 LTS. PZA.                                000
00074701005700000000000000000001BIG COLA DE 3 LTS. CAJA                                000
00074801000450000000000000000001BONAFINA LT PZA                                        000
00074901009000000000000000000001BONAFINA LT CAJA                                       000
00075001001500000000000000000001BONAFINA GALON PZA                                     000
00075101007000000000000000000001BONAFINA 1/2 LT CAJA                                   000
00075201000350000000000000000001BONAFINA 1/2                                           000
00075301000800000000000000000001BAHRAYMA AGUA PZA                                      000
00075401006500000000000000000001BAHRAYMA AGUA CAJA                                     000
00075501000600000000000000000001COCA COLA DE 600 ML. PZA                               000
00075601012500000000000000000001COCA COLA DE 600 ML. CAJA                              000
00075701000500000000000000000001COCA COLA DE LATA PZA.                                 000
00075801009500000000000000000001COCA COLA DE LATA CAJA                                 000
00075901001500000000000000000001COCA COLA DE 2 LTS. PZA.                               000
00076001011000000000000000000001COCA COLA DE 2 LTS. CAJA                               000
00076101000600000000000000000001COCA COLA DE LATA LAIGHT PZA.                          000
00076201012000000000000000000001COCA COLA DE LATA LAIGHT CAJA                          000
00076301000400000000000000000001COCA COLA DE VIDRIO PZA.                               000
00076401008600000000000000000001COCA COLA DE VIDRIO CAJA                               000
00076501008500000000000000000001COCA COLA RETORNABLE DE 2.5 LTS. CAJA                  000
00076601000800000000000000000001COCA COLA DE 1 LT. PZA.                                000
00076701008500000000000000000001COCA COLA DE 1 LT. CAJA                                000
00076801017500000000000000000001CARIBE CAJA                                            000
00076901000900000000000000000001CERVEZA MODELO PZA.                                    000
00077001016300000000000000000001CERVEZA MODELO CAJA                                    000
00077101002000000000000000000001CON TIKI CAJA                                          000
00077201013500000000000000000001CORONA GRANDE CAJA                                     000
00077301008500000000000000000001CORONITA CAJA                                          000
00077401012500000000000000000001CORONA DE BARRIL CAJA                                  000
00077601002800000000000000000001QUESO                                                  000
00077901001000000000000000000001DON W BUFALO X PZA                                     000
00078301000800000000000000000001ENERPLEX DE CHUPON PZA.                                000
00078401014500000000000000000001ENERPLEX DE CHUPON CAJA                                000
00078501000250000000000000000001FRUTSI DEL VALLE PZA.                                  000
00078601004600000000000000000001FRUTSI DEL VALLE CAJA                                  000
00078701004000000000000000000001FRUTASTICA                                             000
00079701000600000000000000000001GENERICA DE 480 ML. PZA.                               000
00079801011200000000000000000001GENERICA DE 480 ML. CAJA                               000
00079901001000000000000000000001GATORADE PZA.                                          000
00080001018000000000000000000001GATORADE CAJA                                          000
00080101001100000000000000000001GALLO PZA                                              000
00080201005700000000000000000001GALLO CAJA                                             000
00080301001200000000000000000001GATORADE DE CHUPON PZA                                 000
00080401022000000000000000000001GATORADE DE CHUPON CAJA                                000
00080901001000000000000000000001JUMEX DE 1 LT. PZA.                                    000
00081001013500000000000000000001JUMEX DE 1 LT. CAJA                                    000
00081101003250000000000000000001JUGO BEBERE 473 ML X CAJA                              000
00081201000500000000000000000001JUGO BEBERE 473 ML X PZA                               000
00081301012500000000000000000001JUGO DEL VALLE 1LT X CAJA                              000
00081401001200000000000000000001JUGO DEL VALLE 1LT X PZA                               000
00081501004000000000000000000001JUGO WOOPY X CAJA                                      000
00083201000600000000000000000001JUMEX DE LATA PZA                                      000
00083301012500000000000000000001JUMEX DE LATA CAJA                                     000
00083401000500000000000000000001JARRO DE 600 ML. PZA.                                  000
00083501008500000000000000000001JARRO DE 600 ML. CAJA                                  000
00083601001000000000000000000001JARRO DE 2 LTS. PZA.                                   000
00083701006800000000000000000001JARRO DE 2 LTS. CAJA                                   000
00083801000350000000000000000001JUGO ART. PZA.                                         000
00083901006600000000000000000001JUGO ART. CAJA                                         000
00084901000500000000000000000001LINEA PEPSI DE LATA PZA.                               000
00085001007000000000000000000001LINEA PEPSI DE LATA CAJA                               000
00085101000700000000000000000001LINEA PEPSI DE 1 LT. PZA.                              000
00085201007500000000000000000001LINEA PEPSI DE 1 LT. CAJA                              000
00085301000800000000000000000001LINEA COCA DE SABOR DE 1 LT. PZA.                      000
00085401006500000000000000000001LINEA COCA DE SABOR DE 1 LT. CAJA                      000
00085501001200000000000000000001LEVITE BONAFON DE 1.5 LTS. PZA.                        000
00085601011000000000000000000001LEVITE BONAFON DE 1.5 LTS. CAJA                        000
00085701000350000000000000000001LULU 1/4 PZA                                           000
00085801005000000000000000000001LULU DE 1/4 CAJA                                       000
00085901001200000000000000000001LULU DE 3 LTS PZA                                      000
00086001005700000000000000000001LULU DE 3 LTS PAQUETE                                  000
00086701000500000000000000000001MANZANA SOL PEPSI DE 600 ML. PZA. (LINEA PEPSI)        000
00086801009000000000000000000001MANZANA SOL PEPSI DE 600 ML. CAJA (LINEA PEPSI)        000
00086901000500000000000000000001MANZANA DELICIOSA DE 600 ML. PZA.                      000
00087001009500000000000000000001MANZANA DELICIOSA DE 600 ML CAJA                       000
00087101000300000000000000000001MANZANA DELICIOSA DE 250 ML. PZA.                      000
00087201006500000000000000000001MANZANA DELICIOSA DE 250 ML. CAJA                      000
00087301007500000000000000000001BIG COLA 600 ML                                        000
00087401000400000000000000000001FIRS 57 GR                                             000
00087501011500000000000000000001MINIBRIK JUMEX CAJA                                    000
00087601005700000000000000000001MAXI DE 3 LT  X CAJA                                   000
00088501003500000000000000000001NEW MIX 2 LTS. PZA                                     000
00088601017500000000000000000001NEW MIX 2 LTS. CAJA                                    000
00088701000350000000000000000001NARANJADA DE 1/2 BONAFINA PZA.                         000
00088801000800000000000000000001NEW MIX LATA PZA                                       000
00088901013500000000000000000001NEW MIX LATA CAJA                                      000
00089001000450000000000000000001NARANJADA DE 1 LT                                      000
00089101001000000000000000000001NARANJADA DE BOLSA                                     000
00090901001000000000000000000001PEPSI DE 2 LTS. PZA.                                   000
00091001008000000000000000000001PEPSI DE 2 LTS. CAJA                                   000
00091101000500000000000000000001PEPSI DE 600 ML. PZA.                                  000
00091201009000000000000000000001PEPSI DE 600 ML. CAJA                                  000
00091301000000000000000000000001                                                       000
00091401000300000000000000000001PASCUALIN BOING PZA                                    000
00091501005500000000000000000001PASCUALIN BOING CAJA                                   000
00091601000500000000000000000001PE헤FIEL DE 600 ML. PZA                                000
00091701010000000000000000000001PE헤FIEL DE 600 ML. CAJA                               000
00091801010000000000000000000001PE헤FIEL DE 2 LTS. CAJA                                000
00091901000250000000000000000001PASCUALIN PZA.                                         000
00092001005500000000000000000001PASCUALIN CAJA                                         000
00092101000250000000000000000001PAU PAU PZA                                            000
00092201003900000000000000000001PAU PAU CAJA                                           000
00092301042000000000000000000001RED BULLD X CJA.                                       000
00092401002200000000000000000001RED BULLD X PZA.                                       000
00092601008800000000000000000001SIDRAL MUNDET 2 LTS. CAJA                              000
00092701000500000000000000000001SIDRAL DE 1/2 LT. PZA.                                 000
00092801010000000000000000000001SIDRAL DE 1/2 LT. CAJA                                 000
00092901001200000000000000000001SQUIRT DE 2.5 LTS. PZA.                                000
00093001008000000000000000000001SQUIRT DE 2.5 LTS. CAJA                                000
00093101000500000000000000000001SANGRIA DE 600 ML. PZA.                                000
00093201010000000000000000000001SANGRIA DE 600 ML. CAJA                                000
00093301008800000000000000000001SANGRIA DE 2 LTS. CAJA                                 000
00094301004000000000000000000001VI헤 DE 2 LTS. PZA.                                    000
00094401019000000000000000000001VI헤 DE 2 LTS. CAJA                                    000
00094501000800000000000000000001VI헤 DE 1/4 PZA.                                       000
00094601015500000000000000000001VI헤 DE 1/4 CAJA                                       000
00094701001000000000000000000001VI헤 DE 1 LT.                                          000
00094801011000000000000000000001VI헤 DE 1 LT. CAJA                                     000
00094901000900000000000000000001VI헤 DE 600 ML. PZA                                    000
00095001011000000000000000000001VI헤 DE 600 ML. CAJA                                   000
00095101015500000000000000000001VI헤 DE 350 ML X CAJA                                  000
99999701000000000000000000000001Entrada manual                                         000
99999801000000000000000000000002Entrada negativa                                       000
99999901000000000000000000000000Entrada precio unit.                                   000
